{
  "contractName": "Item",
  "abi": [
    {
      "inputs": [
        {
          "internalType": "contract ItemManager",
          "name": "_parentContract",
          "type": "address"
        },
        {
          "internalType": "uint256",
          "name": "_priceInWei",
          "type": "uint256"
        },
        {
          "internalType": "uint256",
          "name": "_index",
          "type": "uint256"
        }
      ],
      "stateMutability": "nonpayable",
      "type": "constructor"
    },
    {
      "inputs": [],
      "name": "index",
      "outputs": [
        {
          "internalType": "uint256",
          "name": "",
          "type": "uint256"
        }
      ],
      "stateMutability": "view",
      "type": "function"
    },
    {
      "inputs": [],
      "name": "priceInWei",
      "outputs": [
        {
          "internalType": "uint256",
          "name": "",
          "type": "uint256"
        }
      ],
      "stateMutability": "view",
      "type": "function"
    },
    {
      "stateMutability": "payable",
      "type": "receive"
    }
  ],
  "bytecode": "0x608060405234801561001057600080fd5b506040516104773803806104778339818101604052606081101561003357600080fd5b81019080805190602001909291908051906020019092919080519060200190929190505050816000819055508060028190555082600360006101000a81548173ffffffffffffffffffffffffffffffffffffffff021916908373ffffffffffffffffffffffffffffffffffffffff1602179055505050506103be806100b96000396000f3fe60806040526004361061002d5760003560e01c80632986c0e5146102f95780633c8da58814610324576102f4565b366102f4576000600154146100aa576040517f08c379a00000000000000000000000000000000000000000000000000000000081526004018080602001828103825260158152602001807f4974656d206973207061696420616c726561647921000000000000000000000081525060200191505060405180910390fd5b3460005414610121576040517f08c379a000000000000000000000000000000000000000000000000000000000815260040180806020018281038252601a8152602001807f4f6e6c792066756c6c207061796d656e747320616c6c6f77656400000000000081525060200191505060405180910390fd5b346001600082825401925050819055506000600360009054906101000a900473ffffffffffffffffffffffffffffffffffffffff1673ffffffffffffffffffffffffffffffffffffffff1634600254604051602401808281526020019150506040516020818303038152906040527f800fb83f000000000000000000000000000000000000000000000000000000007bffffffffffffffffffffffffffffffffffffffffffffffffffffffff19166020820180517bffffffffffffffffffffffffffffffffffffffffffffffffffffffff83818316178352505050506040518082805190602001908083835b60208310610230578051825260208201915060208101905060208303925061020d565b6001836020036101000a03801982511681845116808217855250505050505090500191505060006040518083038185875af1925050503d8060008114610292576040519150601f19603f3d011682016040523d82523d6000602084013e610297565b606091505b50509050806102f1576040517f08c379a000000000000000000000000000000000000000000000000000000000815260040180806020018281038252602d81526020018061035c602d913960400191505060405180910390fd5b50005b600080fd5b34801561030557600080fd5b5061030e61034f565b6040518082815260200191505060405180910390f35b34801561033057600080fd5b50610339610355565b6040518082815260200191505060405180910390f35b60025481565b6000548156fe546865207472616e73616374696f6e207761736e2774207375636365737366756c2c2063616e63656c6c696e67a26469706673582212205263634d5f58217b32686f7131adcd9ee8b2e99674081ca3cfd9aa4bf743bde564736f6c63430006010033",
  "source": "pragma solidity ^0.6.0;\n\nimport \"./Ownable.sol\";\nimport \"./ItemManager.sol\";\n\ncontract Item{\n    uint public priceInWei;\n    uint pricePaid;\n    uint public index;\n\n    ItemManager parentContract;\n\n    constructor(ItemManager _parentContract, uint _priceInWei, uint _index) public{\n        priceInWei = _priceInWei;\n        index = _index;\n        parentContract = _parentContract;\n    }\n\n    receive() external payable{\n        require(pricePaid==0, \"Item is paid already!\");\n        require(priceInWei==msg.value, \"Only full payments allowed\");\n        pricePaid+=msg.value;\n        (bool success,) = address(parentContract).call.value(msg.value)(abi.encodeWithSignature(\"triggerPayment(uint256)\", index));\n        require(success, \"The transaction wasn't successful, cancelling\");\n    }\n}",
  "sourcePath": "/Users/rahulkrishna/Documents/GitHub/supply-chain-project-truffle/contracts/Item.sol",
  "compiler": {
    "name": "solc",
    "version": "0.6.1+commit.e6f7d5a4.Emscripten.clang"
  },
  "schemaVersion": "3.3.3",
  "updatedAt": "2022-02-12T12:01:37.706Z",
  "devdoc": {
    "methods": {}
  },
  "userdoc": {
    "methods": {}
  }
}