{
  "contractName": "Ownable",
  "abi": [
    {
      "inputs": [],
      "stateMutability": "nonpayable",
      "type": "constructor"
    },
    {
      "inputs": [],
      "name": "isOwner",
      "outputs": [
        {
          "internalType": "bool",
          "name": "",
          "type": "bool"
        }
      ],
      "stateMutability": "view",
      "type": "function"
    }
  ],
  "bytecode": "0x6080604052348015600f57600080fd5b50336000806101000a81548173ffffffffffffffffffffffffffffffffffffffff021916908373ffffffffffffffffffffffffffffffffffffffff16021790555060da8061005e6000396000f3fe6080604052348015600f57600080fd5b506004361060285760003560e01c80638f32d59b14602d575b600080fd5b6033604d565b604051808215151515815260200191505060405180910390f35b60008060009054906101000a900473ffffffffffffffffffffffffffffffffffffffff1673ffffffffffffffffffffffffffffffffffffffff163373ffffffffffffffffffffffffffffffffffffffff161490509056fea2646970667358221220a2544c326a8430c648d47755d3f521963785ec6e57fc14346498243d8068273564736f6c63430006010033",
  "source": "pragma solidity ^0.6.0;\n\ncontract Ownable{\n    address payable _owner;\n    constructor() public{\n        _owner = msg.sender;\n    }\n\n    modifier onlyOwner(){\n        require(msg.sender==_owner, \"You are not the owner!\");\n        _;\n    }\n\n    function isOwner() public view returns(bool){\n        return (msg.sender == _owner);\n    }\n}",
  "sourcePath": "/Users/rahulkrishna/Documents/GitHub/supply-chain-project-truffle/contracts/Ownable.sol",
  "compiler": {
    "name": "solc",
    "version": "0.6.1+commit.e6f7d5a4.Emscripten.clang"
  },
  "schemaVersion": "3.3.3",
  "updatedAt": "2022-02-12T12:01:37.787Z",
  "devdoc": {
    "methods": {}
  },
  "userdoc": {
    "methods": {}
  }
}